{
  "transactions": [
    {
      "hash": "0xcf055330ae6a473823aa7b4fb8fb997659297dd59134865ba73332946bb1fdad",
      "transactionType": "CALL",
      "contractName": "BasicNft",
      "contractAddress": "0x9fe6c975b0b0b1fb80d108017a498d53bb361356",
      "function": "mintNft(string)",
      "arguments": [
        "https://raw2.seadn.io/ethereum/0x8a90cab2b38dba80c64b7734e58ee1db38b8992e/04cf3aa23639c708051b5020df0a535d.png"
      ],
      "transaction": {
        "from": "0xba7ab2d9cfd90bbf980fc215c4bb4ac58ce0e19b",
        "to": "0x9fe6c975b0b0b1fb80d108017a498d53bb361356",
        "gas": "0x495a9",
        "value": "0x0",
        "input": "0xda86f4a90000000000000000000000000000000000000000000000000000000000000020000000000000000000000000000000000000000000000000000000000000006e68747470733a2f2f726177322e736561646e2e696f2f657468657265756d2f3078386139306361623262333864626138306336346237373334653538656531646233386238393932652f30346366336161323336333963373038303531623530323064663061353335642e706e67000000000000000000000000000000000000",
        "nonce": "0x38",
        "chainId": "0xaa36a7"
      },
      "additionalContracts": [],
      "isFixedGasLimit": false
    }
  ],
  "receipts": [
    {
      "status": "0x1",
      "cumulativeGasUsed": "0x1f64aa5",
      "logs": [
        {
          "address": "0x9fe6c975b0b0b1fb80d108017a498d53bb361356",
          "topics": [
            "0xddf252ad1be2c89b69c2b068fc378daa952ba7f163c4a11628f55a4df523b3ef",
            "0x0000000000000000000000000000000000000000000000000000000000000000",
            "0x000000000000000000000000ba7ab2d9cfd90bbf980fc215c4bb4ac58ce0e19b",
            "0x0000000000000000000000000000000000000000000000000000000000000000"
          ],
          "data": "0x",
          "blockHash": "0x197717473de74b7800fe9600a944f69c1ef5fe4c16531e208851708ddb66d2d4",
          "blockNumber": "0x8134ad",
          "blockTimestamp": "0x683ede08",
          "transactionHash": "0xcf055330ae6a473823aa7b4fb8fb997659297dd59134865ba73332946bb1fdad",
          "transactionIndex": "0xde",
          "logIndex": "0x1fd",
          "removed": false
        }
      ],
      "logsBloom": "0x00000000000000000000000000000000000000000000000000000000000000000000000000080000000000000000000000000000000000000000000000000000400000000000000000000008000000000000000000000000000000000000000000000000020000000000000000000800000000000000000000000010000000000000000000000000000000000000040000000000000000000000000000000000000000000080000000000001000000000000000000000000000000000000000000000002000000000000000000000000000000000000000000000000000020000000000000000000000000000100000000000000000000000000000000000000",
      "type": "0x2",
      "transactionHash": "0xcf055330ae6a473823aa7b4fb8fb997659297dd59134865ba73332946bb1fdad",
      "transactionIndex": "0xde",
      "blockHash": "0x197717473de74b7800fe9600a944f69c1ef5fe4c16531e208851708ddb66d2d4",
      "blockNumber": "0x8134ad",
      "gasUsed": "0x32281",
      "effectiveGasPrice": "0xf59a5",
      "from": "0xba7ab2d9cfd90bbf980fc215c4bb4ac58ce0e19b",
      "to": "0x9fe6c975b0b0b1fb80d108017a498d53bb361356",
      "contractAddress": null
    }
  ],
  "libraries": [],
  "pending": [],
  "returns": {},
  "timestamp": 1748950546,
  "chain": 11155111,
  "commit": "b3c19b6"
}